:020000040800F2
:100000000000012065140008B5140008B5140008AC
:10001000B5140008B5140008B5140008000000006D
:10002000000000000000000000000000B5140008FF
:10003000B514000800000000B51400089111000874
:1000400000000000B5140008B5140008B51400083D
:10005000B5140008B5140008B5140008B51400085C
:10006000B5140008B5140008B5140008B51400084C
:10007000B5140008B5140008B5140008B51400083C
:10008000B5140008B5140008B514000800000000FD
:10009000000000000000000000000000B51400088F
:1000A000B5140008B5140008B5140008B51400080C
:1000B000B5140008B5140008B5140008B5140008FC
:1000C000B5140008B5140008B5140008B5140008EC
:1000D000B514000801130008B51400080000000062
:1000E000B5140008B5140008B5140008000000009D
:1000F000000000000000000000000000B51400082F
:1001000000000000B5140008B5140008B51400087C
:1001100000000000000000000000000000000000DF
:10012000B5140008B5140008B5140008B51400088B
:10013000B5140008000000000000000000000000EE
:10014000000000000000000000000000B5140008DE
:10015000B5140008B5140008B5140008B51400085B
:10016000B5140008B51400080000000000000000ED
:10017000000000000000000000000000000000007F
:10018000000000000000000000000000000000006F
:04019000B51400089A
:1001940010B5054C237833B9044B13B10448AFF3BD
:1001A40000800123237010BD7400002000000000B3
:1001B400D416000808B5034B1BB103490348AFF339
:1001C400008008BD0000000078000020D41600085C
:1001D40080B483B000AF0346FB710B46BB7113467A
:1001E4007B71FEE780B500AF00F0BCFF01F090F832
:1001F400024801F099F800BF80BD00BF4505000822
:1002040080B582B000AF78600B46FB70FB780421A8
:10021400184601F04FF903461A467B681A6000BF7E
:100224000837BD4680BD000090B583B000AF78604C
:100234000B467B807B8803F001039BB2002B02D02A
:100244007B8801337B807888064B1B789B007A6817
:10025400D418012101F02EF90346236000BF0C37A6
:10026400BD4690BD9D0000202DE9F04389B000AF4C
:100274000023FB760123FB710023BB766B461E46ED
:10028400FB7E002B02D0B5460123EDE0794B1A68C2
:10029400BB7E9B0013441B681B783B76754B1A6826
:1002A400BB7E9B0013441B6801331B789BB21B026B
:1002B4009AB2704B1968BB7E9B000B441B680233D7
:1002C4001B789BB21344FB826A4B1A68BB7E9B006B
:1002D40013441B68DB787B753B7E5B08DBB21946F5
:1002E4004B1E3B610A46002314461D464FF0000294
:1002F4004FF000032B0143EA147322010A46002342
:10030400904699464FF000024FF000034FEA09135C
:1003140043EA18734FEA08120B465B000733DB0805
:10032400DB00ADEB030D6B4601335B085B00FB6048
:1003340000237B7622E04F4B1A68BB7E9B0013445C
:100344001B687A7E043213441B789BB21B029AB258
:10035400484B1968BB7E9B000B441B68797E0531B2
:100364000B441B789BB2797E4908C9B213449AB2F4
:10037400FB6823F811207B7E02337B767A7E3B7EFA
:100384009A42D8D33B7E03F00103DBB2002B10D09A
:10039400384B1A68BB7E9B0013441A687B7E033378
:1003A40013441B789BB27A7E1B0299B2FB6823F834
:1003B40012107B7D052B4FD801A252F823F000BF09
:1003C400DD030008F70300085D0400085D0400086D
:1003D400FD03000837040008FB8AFA691344BB6074
:1003E400F8793B7E5B08DBB2FA68B96800F01AFA68
:1003F40035E00123FB7632E0FB681B881B04FB61BC
:100404001C4B1B6804331B6801331B781B021A4600
:10041400FB691344FA1D1146184600F065FA0346B9
:10042400002B01D10123FB71FB79184600F0BAF9C6
:1004340015E0104B1B6804331B6801331B781B0247
:100444001A46FB6913440B4A1268043212680232DA
:1004540012781344084A13600023B54604E0BB7EB7
:100464000133BB76B54609E718462437BD46BDE8D7
:10047400F08300BF980000209000002080B500AFFA
:1004840000F062F90346184680BD80B582B000AF23
:100494000346FB71FB79042B01D9002304E0FB79AB
:1004A400184600F07FF9034618460837BD4680BD5C
:1004B40080B584B000AF094B1B681B68FB60074B19
:1004C4001B6804331B68BB60BB687B60D7F80CD027
:1004D4007B68984700BF1037BD4680BD9000002060
:1004E40080B582B000AF78600B467B8006E0786808
:1004F40000F03FFF7B88184600F0F4FD054B1B78A5
:10050400012BF4D1034B05221A7000BF0837BD46F6
:1005140080BD00BF0000002080B500AF024800F09D
:1005240028FF0123184680BDEC16000880B500AFF3
:10053400024800F01EFF0123184680BDF016000893
:1005440080B582B000AF764B1B78012B40F08A80D7
:10055400744B1B780A2B38D00A2B00F3DC80012B58
:1005640002D0022B19D0D6E0BB1D184600F0F6FECF
:10057400BB799AB26C4B1B8813449AB26A4B1A80AB
:10058400694B1B88DBB219466848FFF739FE644B98
:1005940000221A70FFF7C0FFBDE0BB1D184600F033
:1005A400DDFEBB790533DAB2614B1A705F4B1B6811
:1005B4005F4A127892B211461846FFF735FEFFF7EC
:1005C400ABFF574B00221A70A5E0BB1D184600F084
:1005D400C5FE564B1A68574B1B789B0013441A6888
:1005E400554B1B78591CC8B2534908701344BA7947
:1005F4001A70514B1A784E4B1B789A4228D34E4BA3
:1006040000221A704D4B1B78DB43FB71FB790133DD
:10061400464A1168474A127892000A441168444ACB
:100624001278013A0A44127893420ED1414B1B7856
:100634000133DAB23F4B1A70404B00221A70384B28
:1006440000221A70FFF768FF65E0FFF76FFF62E0B2
:100654003A4B1A78BB791344DAB2384B1A70FFF765
:100664005BFF58E0BB1D184600F078FEBB791B0900
:10067400DBB2013B0D2B4ED801A252F823F000BF90
:10068400BD060008C5060008CD06000803070008DB
:10069400030700080307000803070008FD06000815
:1006A400030700081B0700081B0700081B070008B6
:1006B400E5060008F5060008214B01221A702AE01D
:1006C4001F4B02221A7026E0154B01221A70BB79C7
:1006D40003F00F03DAB2134B1A70FFF71DFF1AE091
:1006E400FFF7C2FD104B00221A80FFF715FF12E03E
:1006F400144B01221A700EE0FFF7C0FE0BE0BB7929
:10070400043BDBB21846FFF7C0FE054B00221A700B
:10071400FFF702FF00BF00BF0837BD4680BD00BF22
:10072400940000209E000020A000002098000020DB
:10073400A20000209D0000209C00002096000020C4
:10074400000000209500002080B400AF124B134A33
:100754005A60114B124A5A6000BF0F4BDB68C3F357
:100764000043DBB2012BF8D00B4A136943F00403B6
:100774001361094A136943F48033136100BF064BC4
:10078400DB68C3F30043DBB2012BF8D00123184626
:10079400BD465DF8047B7047003C02402301674579
:1007A400AB89EFCD80B483B000AF0346FB711A4B25
:1007B4001A4A5A60184B1A4A5A6000BF164BDB6833
:1007C400C3F30043DBB2012BF8D0134A136943F09F
:1007D40002031361104AFB7903F00F03D9B21369C2
:1007E40061F3C60313610C4A136943F48033136144
:1007F40000BF094BDB68C3F30043DBB2012BF8D025
:10080400054A136943F000431361012318460C376A
:10081400BD465DF8047B7047003C024023016745F8
:10082400AB89EFCD80B487B000AFB9607A601A4667
:100834000346FB731346BB730023FB750023BB7590
:10084400FB7B254A52F82320BB7B9A423CD9234B9D
:10085400234A5A60214B234A5A6000BF1F4BDB686E
:10086400C3F30043DBB2012BF8D01C4A136943F0F5
:1008740001031361194A1369012161F30923136107
:1008840017E0BB7D5B007A6813441B885BBABB82AC
:10089400BB68BA8A1A80BB680233BB6000BF0F4BC7
:1008A400DB68C3F30043DBB2012BF8D0BB7D01331B
:1008B400BB75BA7DBB7B9A42E3D3084A136943F004
:1008C400004313610123FB75FB7D18461C37BD46AD
:1008D4005DF8047B704700BF14170008003C024019
:1008E40023016745AB89EFCD80B485B000AF786054
:1008F40039600023FB730EE0FB7B0C4A52F8233073
:100904007A689A4204D13B68FA7B1A70012306E0A4
:10091400FB7B0133FB73FB7B052BEDD900231846CE
:100924001437BD465DF8047B704700BFFC16000811
:1009340090B583B000AF0023FB715EE2FA798E4973
:100944001346DB009B1A0B4401331B780F2B04D98D
:10095400022202210220FFF73BFCFA798649134662
:10096400DB009B1A0B441B78013B844A52F823306A
:100974001968FA7980481346DB009B1A0344013353
:100984001B785B00032202FA03F3DB431C46FA796B
:1009940079481346DB009B1A03441B78013B774AD2
:1009A40052F8233001EA04021A60FA7972491346B4
:1009B400DB009B1A0B441B78013B704A52F823302E
:1009C4001968FA796C481346DB009B1A0344023316
:1009D4001B781C46FA7968481346DB009B1A0344CB
:1009E40001331B785B0004FA03F31C46FA7962486E
:1009F4001346DB009B1A03441B78013B5F4A52F801
:100A0400233041EA04021A60FA795B491346DB0099
:100A14009B1A0B4402331B78012B40F0B180FA7906
:100A240055491346DB009B1A0B441B78013B534A80
:100A340052F823305868FA794F491346DB009B1A61
:100A44000B4401331B781A4601239340D943FA79A6
:100A5400494C1346DB009B1A23441B78013B474A4D
:100A640052F8233000EA01025A60FA7942491346E7
:100A7400DB009B1A0B441B78013B404A52F823309D
:100A84005968FA793C481346DB009B1A0344033344
:100A94001B781C46FA7938481346DB009B1A03443A
:100AA40001331B7804FA03F31C46FA7932481346DF
:100AB400DB009B1A03441B78013B304A52F8233075
:100AC40041EA04025A60FA792B491346DB009B1A67
:100AD4000B441B78013B294A52F823309968FA7970
:100AE40025481346DB009B1A034401331B785B0043
:100AF400032202FA03F3DB431C46FA791E48134629
:100B0400DB009B1A03441B78013B1C4A52F8233038
:100B140001EA04029A60FA7917491346DB009B1A2A
:100B24000B441B78013B154A52F823309968FA7933
:100B340011481346DB009B1A034404331B781C46FC
:100B4400FA790D481346DB009B1A034401331B78E2
:100B54005B0004FA03F31C46FA7907481346DB00EA
:100B64009B1A03441B78013B044A52F8233041EAA0
:100B740004029A603EE100BF04000020140000203B
:100B8400FA79A2491346DB009B1A0B4402331B7803
:100B9400002B57D1FA799D491346DB009B1A0B446D
:100BA4001B78013B9A4A52F82330D968FA7997485E
:100BB4001346DB009B1A034401331B785B000322BA
:100BC40002FA03F3DB431C46FA7990481346DB0030
:100BD4009B1A03441B78013B8D4A52F8233001EAE7
:100BE4000402DA60FA7989491346DB009B1A0B4444
:100BF4001B78013B864A52F82330D968FA79834836
:100C04001346DB009B1A034405331B781C46FA7910
:100C14007E481346DB009B1A034401331B785B00B8
:100C240004FA03F31C46FA7978481346DB009B1A4E
:100C340003441B78013B764A52F8233041EA04020C
:100C4400DA60D7E0FA7971491346DB009B1A0B444A
:100C540002331B78022B40F0BE80FA796B491346AD
:100C6400DB009B1A0B4401331B78072B57D8FA7906
:100C740066491346DB009B1A0B441B78013B644A0C
:100C840052F82330196AFA7960481346DB009B1A3C
:100C9400034401331B789B000F2202FA03F3DB4366
:100CA4001C46FA7959481346DB009B1A03441B7807
:100CB400013B574A52F8233001EA04021A62FA79D6
:100CC40052491346DB009B1A0B441B78013B504AE4
:100CD40052F82330196AFA794C481346DB009B1A00
:100CE400034406331B781C46FA7948481346DB0054
:100CF4009B1A034401331B789B0004FA03F31C463C
:100D0400FA7942481346DB009B1A03441B78013BE3
:100D14003F4A52F8233041EA04021A626AE0FA793F
:100D24003A491346DB009B1A0B441B78013B384AB3
:100D340052F82330596AFA7934481346DB009B1A77
:100D4400034401331B7803F007039B000F2202FACC
:100D540003F3DB431C46FA792C481346DB009B1A49
:100D640003441B78013B2A4A52F8233001EA040267
:100D74005A62FA7925491346DB009B1A0B441B7807
:100D8400013B234A52F82330596AFA791F48134623
:100D9400DB009B1A034406331B781C46FA791B4874
:100DA4001346DB009B1A034401331B7803F007034B
:100DB4009B0004FA03F31C46FA7914481346DB003B
:100DC4009B1A03441B78013B114A52F8233041EA31
:100DD40004025A620EE0FA790C491346DB009B1AAE
:100DE4000B4402331B78032B04D00222022102207D
:100DF400FFF7EEF9FB790133FB71FB79012B7FF6E9
:100E04009DAD00BF00BF0C37BD4690BD040000205F
:100E14001400002080B485B000AF0346FB710023AA
:100E2400FB73FB79542B0DD8FB7903F01F030122CC
:100E340002FA03F1074AFB795B09DBB242F823109B
:100E44000123FB73FB7B18461437BD465DF8047B16
:100E5400704700BF00E100E080B485B000AF0346F6
:100E6400FB710023FB73FB79542B0ED8FB7903F041
:100E74001F03012202FA03F1074AFB795B09DBB283
:100E8400203342F823100123FB73FB7B18461437ED
:100E9400BD465DF8047B704700E100E080B483B098
:100EA40000AF0023FB71174A136843F480331360C7
:100EB400144A13686FF300031360124A13686FF344
:100EC400186313600F4A136843F4802313600D4AB8
:100ED400936843F0010393600A4A93686FF34103F4
:100EE400936000BF074B1B68C3F34043DBB2002B86
:100EF400F8D00123FB71FB7918460C37BD465DF829
:100F0400047B70470038024080B582B000AF0023F4
:100F1400FB71FFF7C3FF0346FB71FB7918460837E3
:100F2400BD4680BD80B400AF224A136843F001037C
:100F3400136000BF1F4B1B68C3F34003DBB2002BDD
:100F4400F8D01C4B00229A6000BF1A4B9B68C3F375
:100F54008103DBB2002BF8D1164A13686FF31043F8
:100F64001360144A13686FF392431360114A1368B1
:100F74006FF3D343136000BF0E4B1B68C3F34043AE
:100F8400DBB2002BF8D10B4A13686FF318631360BC
:100F940000BF084B1B68C3F34063DBB2002BF8D1DE
:100FA400044B054A5A6001231846BD465DF8047B8C
:100FB400704700BF003802401030002480B485B070
:100FC40000AF03460A46FB711346BB710023FB7353
:100FD400BB791F2B31D8FB79032B20D0032B2BDCBF
:100FE400012B02D0022B0DD026E0174B1B6BBA79D4
:100FF400012101FA02F21146134A0B431363012340
:10100400FB731AE0104B1B6CBA79012101FA02F24E
:1010140011460D4A0B4313640123FB730DE00A4B85
:101024005B6CBA79012101FA02F21146064A0B43BC
:1010340053640123FB7300E000BFFB7B18461437A5
:10104400BD465DF8047B70470038024080B485B02B
:1010540000AF03460A46FB711346BB710023FB73C2
:10106400BB791F2B34D8FB79032B22D0032B2EDC26
:10107400012B02D0022B0ED029E0194B1B6BBA793D
:10108400012101FA02F2D2431146154A0B401363BF
:101094000123FB731CE0124B1B6CBA79012101FA8A
:1010A40002F2D24311460E4A0B4013640123FB7330
:1010B4000EE00B4B5B6CBA79012101FA02F2D243C8
:1010C4001146074A0B4053640123FB7300E000BF41
:1010D400FB7B18461437BD465DF8047B704700BFA0
:1010E4000038024080B485B000AF0346FB80002383
:1010F400FB731A4B1B78022B29D10123FB73184B6A
:1011040000229A60164B00225A600023BB81002300
:10111400BB8118E0124B40F635425A60104A1368FE
:1011240043F00103136000BF0D4B1B68C3F300437E
:10113400DBB2002BF8D00A4A13686FF31043136034
:10114400BB890133BB81BA89FB889A42E2D3FB7B1A
:1011540018461437BD465DF8047B70472000002014
:1011640010E000E080B400AF064B02221A70064A79
:1011740013686FF38203136000BFBD465DF8047B00
:10118400704700BF2000002010E000E080B500AFF1
:10119400114B1A88114B1B889BB29A4214D1104BE5
:1011A4001B6898470C4B01221A800E4B1B78DBB24C
:1011B400012B0FD10C4B00229A600B4B00225A607A
:1011C400094B00221A6005E0034B1B8801339AB2D5
:1011D400014B1A8000BF80BD22000020A80000201F
:1011E400A4000020AA00002010E000E080B400AFBA
:1011F400124A93680D2161F30F1393600F4A9368A9
:10120400092161F3030393600C4AD36843F4005348
:10121400D3600A4AD36843F00803D360074AD3680B
:1012240043F00403D360054AD36843F02003D3603A
:1012340000BFBD465DF8047B704700BF001001404D
:1012440080B483B000AF7860054B5B68DAB27B682A
:101254001A7000BF0C37BD465DF8047B704700BFB1
:101264000010014080B483B000AF0346FB710B4A09
:10127400FB79536000BF094B1B68C3F3C013DBB297
:10128400002BF8D0054A13686FF3C713136000BF2F
:101294000C37BD465DF8047B704700BF0010014069
:1012A40080B584B000AF78600023BB730023FB7368
:1012B40009E0FB7B5A1CFA731A467B6813441B78BB
:1012C4001846FFF7CFFFFB7B7A6813441B78002B8B
:1012D400EFD1BB7B18461037BD4680BD80B483B0C8
:1012E40000AF7860044A7B68136000BF0C37BD46CA
:1012F4005DF8047B704700BFAC00002080B500AFF0
:10130400024B1B68984700BF80BD00BFAC000020A3
:1013140080B500AFFFF76AFF0248FFF7DFFF00BFA9
:1013240080BD00BF4D13000880B483B000AF786067
:10133400044A7B68136000BF0C37BD465DF8047B2C
:10134400704700BFB000002080B500AF024B1B689F
:10135400984700BF80BD00BFB000002080B582B0B8
:1013640000AF78607868FFF76BFF00BF0837BD46B1
:1013740080BD80B582B000AF78607868FFF790FFD9
:1013840000BF0837BD4680BD80B500AFFFF7BCFD88
:1013940000210120FFF712FEFFF7CAFA2520FFF70C
:1013A40039FD04210320FFF709FEFEF71BFF4FF46C
:1013B400FA710E48FFF794F800BF0D4B1B78002B11
:1013C400FBD02520FFF748FD04210320FFF73EFE54
:1013D40000210120FFF73AFEFFF7A4FDFFF79CF878
:1013E400FFF766F80023184680BD00BFF816000812
:1013F4009500002080B586B000AF7860144A154B84
:10140400D31A7B617B693B61134B1B68002B02D1B0
:10141400114B124A1A60104B1A687B6813443A69DC
:101424009A4207D200F028F903460C221A604FF0C2
:10143400FF3309E0084B1B68FB60074B1A687B68A5
:101444001344054A1360FB6818461837BD4680BD2F
:101454000000012000040000B4000020000200206D
:101464000D488546AFF300800C480D490D4A002312
:1014740002E0D458C4500433C4188C42F9D30A4A45
:101484000A4C002301E013600432A242FBD300F0B3
:10149400F9F8FFF779FFFEE70000012000000020C3
:1014A400740000203417000874000020000200209B
:1014B400FEE70000024B0A460146186800F002B835
:1014C4007000002037B5A1FB02244CB911460192EB
:1014D40000F02EF8019A054630B9284603B030BD15
:1014E4000C2202600025F8E7214600F0ADF8F4E78D
:1014F40070B50E4E0C463168054611B900F0ACF8D3
:1015040030602146284600F0A7F8431C0AD0C41CCA
:1015140024F00304A04207D0211A284600F09CF8C6
:10152400013001D14FF0FF34204670BDBC000020D3
:101534002DE9F843CD1C25F0030508350C2D38BFE3
:101544000C25002D074601DBA94205D90C233B607D
:1015540000263046BDE8F883DFF8D08000F068F854
:10156400D8F800301C465CBB29463846FFF7C0FF5C
:10157400431C044655D1D8F800402646002E45D1D8
:10158400002C48D023683146384604EB030900F0A8
:1015940063F881453FD121686D1A29463846FFF723
:1015A400A7FF013037D023682B442360D8F80030DC
:1015B400002B38D05A68A2422BD100225A600FE087
:1015C4002268521B1FD40B2A17D96119A342256024
:1015D40018BF5960636808BFC8F8001062514B60B7
:1015E400384604F10B0600F029F826F00706231DFF
:1015F400F21AAED09B1BA350ABE7A3426268DDD1C5
:10160400C8F80020ECE723466468ACE73446766803
:10161400B4E71346CCE70C233B60384600F00EF8E1
:1016240097E72560DCE75B60FFDE00BFB8000020C1
:10163400014800F04BB800BFFC010020014800F055
:1016440046B800BFFC01002002440346934200D187
:10165400704703F8011BF9E738B5064D002304462B
:1016640008462B60FFF7C6FE431C02D12B6803B16A
:10167400236038BDF8010020014B1868704700BF93
:101684007000002070B50D4D0D4C641BA410002695
:10169400A64209D10B4D0C4C00F01AF8641BA4109F
:1016A4000026A64205D170BD55F8043B9847013683
:1016B400EEE755F8043B98470136F2E72C1700088B
:1016C4002C1700082C1700083017000870477047C3
:1016D400F8B500BFF8BC08BC9E467047F8B500BF1B
:0816E400F8BC08BC9E467047EB
:1016EC0041434B004E41434B000000005244590013
:1016FC0000000008004000080080000800C000083E
:10170C00000001080000020800400000004000003A
:10171C00004000000040000000000100000002003A
:04172C00B9010008F7
:041730009501000817
:1017340005000000010902FFFFFF07010A02FFFF85
:10174400FF070000000002400004024000080240BD
:101754000100010000000000C0000020280100205A
:1017640090010020000000000000000000000000C4
:101774000000000000000000000000000000000065
:101784000000000000000000000000000000000055
:101794000000000000000000000000000000000045
:0417A40024000020FD
:040000050800146576
:00000001FF
