:020000040800F2
:10C000000000012049C9000899C9000899C9000821
:10C0100099C9000899C9000899C9000800000000E2
:10C0200000000000000000000000000099C90008A6
:10C0300099C900080000000099C9000899C90008C2
:10C040000000000099C9000899C9000899C90008B2
:10C0500099C9000899C9000899C9000899C9000838
:10C0600099C9000899C9000899C9000899C9000828
:10C0700099C9000899C9000899C9000899C9000818
:10C0800099C9000899C9000899C900080000000072
:10C0900000000000000000000000000099C9000836
:10C0A00099C9000899C9000899C9000899C90008E8
:10C0B00099C9000899C9000899C9000899C90008D8
:10C0C00099C9000899C9000899C9000899C90008C8
:10C0D00099C9000899C9000899C900080000000022
:10C0E00099C9000899C9000899C900080000000012
:10C0F00000000000000000000000000099C90008D6
:10C100000000000099C9000899C9000899C90008F1
:10C11000000000000000000000000000000000001F
:10C1200099C9000899C9000899C9000899C9000867
:10C1300099C9000800000000000000000000000095
:10C1400000000000000000000000000099C9000885
:10C1500099C9000899C9000899C9000899C9000837
:10C1600099C9000899C900080000000000000000FB
:10C1700000000000000000000000000000000000BF
:10C1800000000000000000000000000000000000AF
:04C1900099C9000841
:10C1940010B5054C237833B9044B13B10448AFF3FD
:10C1A40000800123237010BD140000200000000053
:10C1B400E4C9000808B5034B1BB103490348AFF3B6
:10C1C400008008BD0000000018000020E4C9000839
:10C1D40080B483B000AF0346FB710B46BB711346BA
:10C1E4007B71FEE790B583B000AF944B1B78002BB6
:10C1F40040F06C82914B01221A700023FB7160E2C3
:10C20400FA798F491346DB009B1A0B4401331B78E0
:10C214000F2B04D9022202210220FFF7D9FFFA7959
:10C2240087491346DB009B1A0B441B78013B854A64
:10C2340052F823301968FA7981481346DB009B1AB7
:10C24400034401331B785B00032202FA03F3DB434C
:10C254001C46FA797A481346DB009B1A03441B7880
:10C26400013B784A52F8233001EA04021A60FA7951
:10C2740073491346DB009B1A0B441B78013B714A3C
:10C2840052F823301968FA796D481346DB009B1A7B
:10C29400034402331B781C46FA7969481346DB00D1
:10C2A4009B1A034401331B785B0004FA03F31C4616
:10C2B400FA7963481346DB009B1A03441B78013B5D
:10C2C400604A52F8233041EA04021A60FA795C4960
:10C2D4001346DB009B1A0B4402331B78012B40F0FE
:10C2E400B380FA7956491346DB009B1A0B441B783A
:10C2F400013B544A52F823305868FA79504913469E
:10C30400DB009B1A0B4401331B781A46012393402C
:10C31400D943FA794A4C1346DB009B1A23441B7811
:10C32400013B484A52F8233000EA01025A60FA7984
:10C3340043491346DB009B1A0B441B78013B414ADB
:10C3440052F823305968FA793D481346DB009B1AAA
:10C35400034403331B781C46FA7939481346DB003F
:10C364009B1A034401331B7804FA03F31C46FA793D
:10C3740033481346DB009B1A03441B78013B314AC4
:10C3840052F8233041EA04025A60FA792C491346E0
:10C39400DB009B1A0B441B78013B2A4A52F82330DA
:10C3A4009968FA7926481346DB009B1A0344013343
:10C3B4001B785B00032202FA03F3DB431C46FA7981
:10C3C4001F481346DB009B1A03441B78013B1D4A9C
:10C3D40052F8233001EA04029A60FA7918491346A4
:10C3E400DB009B1A0B441B78013B164A52F823309E
:10C3F4009968FA7912481346DB009B1A0344043304
:10C404001B781C46FA790E481346DB009B1A03443A
:10C4140001331B785B0004FA03F31C46FA790848DD
:10C424001346DB009B1A03441B78013B054A52F870
:10C43400233041EA04029A6040E100BF300000204A
:10C444000000002008000020FA79A2491346DB000E
:10C454009B1A0B4402331B78002B57D1FA799D4960
:10C464001346DB009B1A0B441B78013B9A4A52F893
:10C474002330D968FA7997481346DB009B1A0344A2
:10C4840001331B785B00032202FA03F3DB431C46EF
:10C49400FA7990481346DB009B1A03441B78013B4E
:10C4A4008D4A52F8233001EA0402DA60FA798949A4
:10C4B4001346DB009B1A0B441B78013B864A52F857
:10C4C4002330D968FA7983481346DB009B1A034466
:10C4D40005331B781C46FA797E481346DB009B1A09
:10C4E400034401331B785B0004FA03F31C46FA7916
:10C4F40078481346DB009B1A03441B78013B764AB9
:10C5040052F8233041EA0402DA60D7E0FA7971493B
:10C514001346DB009B1A0B4402331B78022B40F0BA
:10C52400BE80FA796B491346DB009B1A0B44013336
:10C534001B78072B57D8FA7966491346DB009B1AF8
:10C544000B441B78013B644A52F82330196AFA7988
:10C5540060481346DB009B1A034401331B789B009D
:10C564000F2202FA03F3DB431C46FA7959481346B7
:10C57400DB009B1A03441B78013B574A52F82330D3
:10C5840001EA04021A62FA7952491346DB009B1A43
:10C594000B441B78013B504A52F82330196AFA794C
:10C5A4004C481346DB009B1A034406331B781C4695
:10C5B400FA7948481346DB009B1A034401331B787D
:10C5C4009B0004FA03F31C46FA7942481346DB0045
:10C5D4009B1A03441B78013B3F4A52F8233041EA3B
:10C5E40004021A626AE0FA793A491346DB009B1A9C
:10C5F4000B441B78013B384A52F82330596AFA79C4
:10C6040034481346DB009B1A034401331B7803F0C0
:10C6140007039B000F2202FA03F3DB431C46FA795B
:10C624002C481346DB009B1A03441B78013B2A4A1F
:10C6340052F8233001EA04025A62FA792549134672
:10C64400DB009B1A0B441B78013B234A52F823302E
:10C65400596AFA791F481346DB009B1A03440633D0
:10C664001B781C46FA791B481346DB009B1A0344CB
:10C6740001331B7803F007039B0004FA03F31C4601
:10C68400FA7914481346DB009B1A03441B78013BD8
:10C69400114A52F8233041EA04025A620EE0FA7950
:10C6A4000C491346DB009B1A0B4402331B78032B03
:10C6B40004D0022202210220FFF78AFDFB79013314
:10C6C400FB71FB79002B3FF49BAD00E000BF0C37FE
:10C6D400BD4690BD000000200800002080B584B055
:10C6E40000AF0346FB710B46BB7113467B710023FD
:10C6F400FB73BB790F2B05D9042202210220FFF71B
:10C7040067FD4BE0FB79032B2ED0032B40DC012B80
:10C7140002D0022B14D03BE07B79002B03D1BB79F0
:10C724001033DBB200E0BB79BB731F4B9B69BA7B50
:10C73400012101FA02F211461B4A0B4393612DE0D9
:10C744007B79002B03D1BB791033DBB200E0BB79DA
:10C75400BB73164B9B69BA7B012101FA02F21146A5
:10C76400124A0B43936119E07B79002B03D1BB7907
:10C774001033DBB200E0BB79BB730D4B9B69BA7B12
:10C78400012101FA02F21146094A0B43936105E0C3
:10C79400032201210220FFF71BFD00BFFB7B18468B
:10C7A4001037BD4680BD00BF0000024000040240B7
:10C7B4000008024080B500AFFFF714FD00BF80BD44
:10C7C40080B584B000AF0346FB710023FB73FA7994
:10C7D4000C491346DB009B1A0B441878FA79094973
:10C7E4001346DB009B1A0B4401331B7801221946C4
:10C7F400FFF774FF0346FB73FB7B18461037BD46F7
:10C8040080BD00BF0000002080B483B000AF0023CF
:10C81400FB71194B00221A60174A13686FF3000367
:10C824001360154A136843F480331360124A136883
:10C834006FF318631360104A136843F48023136082
:10C844000D4A936843F0010393600B4A93686FF3B6
:10C854004103936000BF084B1B68C3F34043DBB242
:10C86400002BF8D00123FB71FB7918460C37BD4629
:10C874005DF8047B704700BF0038024080B582B089
:10C8840000AF0023FB71FFF7BFFF0346FB71FB7989
:10C8940018460837BD4680BD80B485B000AF034656
:10C8A4000A46FB711346BB710023FB73BB791F2B34
:10C8B40031D8FB79032B20D0032B2BDC012B02D0A6
:10C8C400022B0DD026E0174B1B6BBA79012101FA1C
:10C8D40002F21146134A0B4313630123FB731AE05C
:10C8E400104B1B6CBA79012101FA02F211460D4A70
:10C8F4000B4313640123FB730DE00A4B5B6CBA79A1
:10C90400012101FA02F21146064A0B435364012342
:10C91400FB7300E000BFFB7B18461437BD465DF88F
:10C92400047B70470038024080B500AFFFF7A6FFD4
:10C9340000210120FFF7B0FFFFF73CFF0020FFF7C5
:10C944003FFFFEE70D488546AFF300800C480D49D4
:10C954000D4A002302E0D458C4500433C4188C4256
:10C96400F9D30A4A0A4C002301E013600432A242BC
:10C97400FBD300F011F8FFF7D7FFFEE7000001201A
:10C98400000000201400002004CA00081400002045
:10C9940034000020FEE7000070B50D4D0D4C641B03
:10C9A400A4100026A64209D10B4D0C4C00F018F837
:10C9B400641BA4100026A64205D170BD55F8043BA3
:10C9C40098470136EEE755F8043B98470136F2E7FD
:10C9D400FCC90008FCC90008FCC9000800CA00081A
:10C9E400F8B500BFF8BC08BC9E467047F8B500BF58
:08C9F400F8BC08BC9E46704728
:04C9FC00B9C10008B5
:04CA000095C10008D4
:10CA04000107010000FFFF00000002400004024093
:04CA140000080240D4
:040000050800C949DD
:00000001FF
